{
  "contractName": "collectionRegistry",
  "abi": [
    {
      "constant": true,
      "inputs": [
        {
          "name": "",
          "type": "address"
        },
        {
          "name": "",
          "type": "uint256"
        }
      ],
      "name": "collections",
      "outputs": [
        {
          "name": "",
          "type": "address"
        }
      ],
      "payable": false,
      "stateMutability": "view",
      "type": "function"
    },
    {
      "constant": false,
      "inputs": [
        {
          "name": "collectionAddr",
          "type": "address"
        }
      ],
      "name": "registerCollection",
      "outputs": [],
      "payable": false,
      "stateMutability": "nonpayable",
      "type": "function"
    },
    {
      "constant": true,
      "inputs": [
        {
          "name": "walletAddr",
          "type": "address"
        }
      ],
      "name": "getCollectionsByAddr",
      "outputs": [
        {
          "name": "",
          "type": "address[]"
        }
      ],
      "payable": false,
      "stateMutability": "view",
      "type": "function"
    }
  ],
  "bytecode": "0x608060405234801561001057600080fd5b506104aa806100206000396000f300608060405260043610610057576000357c0100000000000000000000000000000000000000000000000000000000900463ffffffff16806341c405761461005c57806349a764cd1461009f5780637e12fee01461012c575b600080fd5b34801561006857600080fd5b5061009d600480360381019080803573ffffffffffffffffffffffffffffffffffffffff1690602001909291905050506101c4565b005b3480156100ab57600080fd5b506100ea600480360381019080803573ffffffffffffffffffffffffffffffffffffffff1690602001909291908035906020019092919050505061027d565b604051808273ffffffffffffffffffffffffffffffffffffffff1673ffffffffffffffffffffffffffffffffffffffff16815260200191505060405180910390f35b34801561013857600080fd5b5061016d600480360381019080803573ffffffffffffffffffffffffffffffffffffffff1690602001909291905050506102ca565b6040518080602001828103825283818151815260200191508051906020019060200280838360005b838110156101b0578082015181840152602081019050610195565b505050509050019250505060405180910390f35b6101cd81610396565b15156101d857600080fd5b6000803373ffffffffffffffffffffffffffffffffffffffff1673ffffffffffffffffffffffffffffffffffffffff1681526020019081526020016000208190806001815401808255809150509060018203906000526020600020016000909192909190916101000a81548173ffffffffffffffffffffffffffffffffffffffff021916908373ffffffffffffffffffffffffffffffffffffffff1602179055505050565b60006020528160005260406000208181548110151561029857fe5b906000526020600020016000915091509054906101000a900473ffffffffffffffffffffffffffffffffffffffff1681565b60606000808373ffffffffffffffffffffffffffffffffffffffff1673ffffffffffffffffffffffffffffffffffffffff16815260200190815260200160002080548060200260200160405190810160405280929190818152602001828054801561038a57602002820191906000526020600020905b8160009054906101000a900473ffffffffffffffffffffffffffffffffffffffff1673ffffffffffffffffffffffffffffffffffffffff1681526020019060010190808311610340575b50505050509050919050565b6000808290508073ffffffffffffffffffffffffffffffffffffffff1663893d20e86040518163ffffffff167c0100000000000000000000000000000000000000000000000000000000028152600401602060405180830381600087803b15801561040057600080fd5b505af1158015610414573d6000803e3d6000fd5b505050506040513d602081101561042a57600080fd5b810190808051906020019092919050505073ffffffffffffffffffffffffffffffffffffffff163373ffffffffffffffffffffffffffffffffffffffff1614151561047457600080fd5b60019150509190505600a165627a7a723058209bea0804789f517488147fe641c5ce2d6a94e46cd0e9451fb0608879ec7ae69a0029",
  "source": "pragma solidity ^0.4.17;\n\nimport './Collection.sol';\n\ncontract collectionRegistry {\n\n  // Mapping between wallets and collections\n  mapping (address => address[]) public collections;\n\n  function validate(address collectionAddr) private view returns (bool){\n    // Function for accessing Qi contract and verifying owner\n    Collection c = Collection(collectionAddr);\n\t\trequire(msg.sender == c.getOwner());\n    return true;\n  }\n\n  function registerCollection(address collectionAddr) public {\n    require(validate(collectionAddr));\n    // Index de senders collection to the wallet address\n    collections[msg.sender].push(collectionAddr);\n  }\n\n  function getCollectionsByAddr(address walletAddr) public view returns (address[]) {\n    return collections[walletAddr];\n  }\n\n}\n",
  "sourcePath": "/Users/juanroalvarado/Desktop/qi/qi-contracts/contracts/collectionRegistry.sol",
  "compiler": {
    "name": "solc",
    "version": "0.4.24+commit.e67f0147.Emscripten.clang"
  },
  "schemaVersion": "2.0.1",
  "updatedAt": "2018-09-22T16:22:22.502Z"
}