{
  "contractName": "Qi",
  "abi": [
    {
      "constant": true,
      "inputs": [],
      "name": "title",
      "outputs": [
        {
          "name": "",
          "type": "string"
        }
      ],
      "payable": false,
      "stateMutability": "view",
      "type": "function"
    },
    {
      "constant": true,
      "inputs": [],
      "name": "other",
      "outputs": [
        {
          "name": "",
          "type": "string"
        }
      ],
      "payable": false,
      "stateMutability": "view",
      "type": "function"
    },
    {
      "constant": true,
      "inputs": [],
      "name": "collectionAddr",
      "outputs": [
        {
          "name": "",
          "type": "address"
        }
      ],
      "payable": false,
      "stateMutability": "view",
      "type": "function"
    },
    {
      "constant": true,
      "inputs": [],
      "name": "qiCreationTime",
      "outputs": [
        {
          "name": "",
          "type": "uint256"
        }
      ],
      "payable": false,
      "stateMutability": "view",
      "type": "function"
    },
    {
      "inputs": [
        {
          "name": "collectionOwner",
          "type": "address"
        },
        {
          "name": "_title",
          "type": "string"
        },
        {
          "name": "_other",
          "type": "string"
        }
      ],
      "payable": false,
      "stateMutability": "nonpayable",
      "type": "constructor"
    },
    {
      "constant": false,
      "inputs": [
        {
          "name": "qiReceiver",
          "type": "address"
        }
      ],
      "name": "newIssueDate",
      "outputs": [],
      "payable": false,
      "stateMutability": "nonpayable",
      "type": "function"
    },
    {
      "constant": true,
      "inputs": [],
      "name": "getQiInfo",
      "outputs": [
        {
          "name": "",
          "type": "uint256"
        },
        {
          "name": "",
          "type": "string"
        },
        {
          "name": "",
          "type": "string"
        }
      ],
      "payable": false,
      "stateMutability": "view",
      "type": "function"
    },
    {
      "constant": true,
      "inputs": [],
      "name": "getOwner",
      "outputs": [
        {
          "name": "",
          "type": "address"
        }
      ],
      "payable": false,
      "stateMutability": "view",
      "type": "function"
    }
  ],
  "bytecode": "0x608060405234801561001057600080fd5b50604051610891380380610891833981018060405281019080805190602001909291908051820192919060200180518201929190505050826000806101000a81548173ffffffffffffffffffffffffffffffffffffffff021916908373ffffffffffffffffffffffffffffffffffffffff1602179055504260018190555081600290805190602001906100a49291906100c4565b5080600390805190602001906100bb9291906100c4565b50505050610169565b828054600181600116156101000203166002900490600052602060002090601f016020900481019282601f1061010557805160ff1916838001178555610133565b82800160010185558215610133579182015b82811115610132578251825591602001919060010190610117565b5b5090506101409190610144565b5090565b61016691905b8082111561016257600081600090555060010161014a565b5090565b90565b610719806101786000396000f300608060405260043610610083576000357c0100000000000000000000000000000000000000000000000000000000900463ffffffff1680633c72e2a7146100885780634a79d50c1461018b578063612830e71461021b578063852958771461025e578063893d20e8146102ee5780639caa493214610345578063cfb2e0fa1461039c575b600080fd5b34801561009457600080fd5b5061009d6103c7565b604051808481526020018060200180602001838103835285818151815260200191508051906020019080838360005b838110156100e75780820151818401526020810190506100cc565b50505050905090810190601f1680156101145780820380516001836020036101000a031916815260200191505b50838103825284818151815260200191508051906020019080838360005b8381101561014d578082015181840152602081019050610132565b50505050905090810190601f16801561017a5780820380516001836020036101000a031916815260200191505b509550505050505060405180910390f35b34801561019757600080fd5b506101a0610516565b6040518080602001828103825283818151815260200191508051906020019080838360005b838110156101e05780820151818401526020810190506101c5565b50505050905090810190601f16801561020d5780820380516001836020036101000a031916815260200191505b509250505060405180910390f35b34801561022757600080fd5b5061025c600480360381019080803573ffffffffffffffffffffffffffffffffffffffff1690602001909291905050506105b4565b005b34801561026a57600080fd5b506102736105fb565b6040518080602001828103825283818151815260200191508051906020019080838360005b838110156102b3578082015181840152602081019050610298565b50505050905090810190601f1680156102e05780820380516001836020036101000a031916815260200191505b509250505060405180910390f35b3480156102fa57600080fd5b50610303610699565b604051808273ffffffffffffffffffffffffffffffffffffffff1673ffffffffffffffffffffffffffffffffffffffff16815260200191505060405180910390f35b34801561035157600080fd5b5061035a6106c2565b604051808273ffffffffffffffffffffffffffffffffffffffff1673ffffffffffffffffffffffffffffffffffffffff16815260200191505060405180910390f35b3480156103a857600080fd5b506103b16106e7565b6040518082815260200191505060405180910390f35b600060608060015460026003818054600181600116156101000203166002900480601f0160208091040260200160405190810160405280929190818152602001828054600181600116156101000203166002900480156104685780601f1061043d57610100808354040283529160200191610468565b820191906000526020600020905b81548152906001019060200180831161044b57829003601f168201915b50505050509150808054600181600116156101000203166002900480601f0160208091040260200160405190810160405280929190818152602001828054600181600116156101000203166002900480156105045780601f106104d957610100808354040283529160200191610504565b820191906000526020600020905b8154815290600101906020018083116104e757829003601f168201915b50505050509050925092509250909192565b60028054600181600116156101000203166002900480601f0160208091040260200160405190810160405280929190818152602001828054600181600116156101000203166002900480156105ac5780601f10610581576101008083540402835291602001916105ac565b820191906000526020600020905b81548152906001019060200180831161058f57829003601f168201915b505050505081565b42600460008373ffffffffffffffffffffffffffffffffffffffff1673ffffffffffffffffffffffffffffffffffffffff1681526020019081526020016000208190555050565b60038054600181600116156101000203166002900480601f0160208091040260200160405190810160405280929190818152602001828054600181600116156101000203166002900480156106915780601f1061066657610100808354040283529160200191610691565b820191906000526020600020905b81548152906001019060200180831161067457829003601f168201915b505050505081565b60008060009054906101000a900473ffffffffffffffffffffffffffffffffffffffff16905090565b6000809054906101000a900473ffffffffffffffffffffffffffffffffffffffff1681565b600154815600a165627a7a723058205eadb04226c18b977730d13a6bd4603e586d8afecdee86b576bd7835172f8a180029",
  "source": "pragma solidity ^0.4.17;\n\n// Collection's qis, class definition.\ncontract Qi{\n    address public collectionAddr;\n    uint public qiCreationTime;\n    string public title;\n    string public other;\n    mapping (address => uint256) issueDates;\n\n    constructor (\n      address collectionOwner,\n      string _title,\n      string _other)\n      public {\n        collectionAddr = collectionOwner;\n        qiCreationTime = block.timestamp;\n        title = _title;\n        other = _other;\n    }\n\n    function newIssueDate(\n        address qiReceiver)\n      public {\n        issueDates[qiReceiver] = block.timestamp;\n    }\n\n    function getQiInfo()\n        public\n        view\n        returns (uint, string, string){\n\n        return (qiCreationTime, title, other);\n    }\n\n    function getOwner()\n      public\n      view\n      returns (address) {\n        return collectionAddr;\n    }\n}\n",
  "sourcePath": "/Users/juanroalvarado/Desktop/qi/qi-contracts/contracts/Qi.sol",
  "compiler": {
    "name": "solc",
    "version": "0.4.24+commit.e67f0147.Emscripten.clang"
  },
  "schemaVersion": "2.0.1",
  "updatedAt": "2018-10-12T15:47:59.839Z"
}