{
  "contractName": "qiRegistry",
  "abi": [
    {
      "constant": true,
      "inputs": [
        {
          "name": "",
          "type": "address"
        },
        {
          "name": "",
          "type": "uint256"
        }
      ],
      "name": "issuers",
      "outputs": [
        {
          "name": "",
          "type": "address"
        }
      ],
      "payable": false,
      "stateMutability": "view",
      "type": "function"
    },
    {
      "constant": true,
      "inputs": [
        {
          "name": "",
          "type": "address"
        },
        {
          "name": "",
          "type": "uint256"
        }
      ],
      "name": "receivers",
      "outputs": [
        {
          "name": "",
          "type": "address"
        }
      ],
      "payable": false,
      "stateMutability": "view",
      "type": "function"
    },
    {
      "constant": false,
      "inputs": [
        {
          "name": "collectionAddr",
          "type": "address"
        },
        {
          "name": "title",
          "type": "string"
        },
        {
          "name": "info",
          "type": "string"
        }
      ],
      "name": "createQi",
      "outputs": [
        {
          "name": "",
          "type": "address"
        }
      ],
      "payable": false,
      "stateMutability": "nonpayable",
      "type": "function"
    },
    {
      "constant": false,
      "inputs": [
        {
          "name": "qiAddress",
          "type": "address"
        },
        {
          "name": "receiverAddress",
          "type": "address"
        },
        {
          "name": "collectionAddr",
          "type": "address"
        }
      ],
      "name": "issueQi",
      "outputs": [],
      "payable": false,
      "stateMutability": "nonpayable",
      "type": "function"
    },
    {
      "constant": true,
      "inputs": [
        {
          "name": "issuerAddress",
          "type": "address"
        }
      ],
      "name": "getIssuerQis",
      "outputs": [
        {
          "name": "",
          "type": "address[]"
        }
      ],
      "payable": false,
      "stateMutability": "view",
      "type": "function"
    },
    {
      "constant": true,
      "inputs": [
        {
          "name": "receiverAddress",
          "type": "address"
        }
      ],
      "name": "getReceiverQis",
      "outputs": [
        {
          "name": "",
          "type": "address[]"
        }
      ],
      "payable": false,
      "stateMutability": "view",
      "type": "function"
    }
  ],
  "bytecode": "0x608060405234801561001057600080fd5b50611382806100206000396000f300608060405260043610610078576000357c0100000000000000000000000000000000000000000000000000000000900463ffffffff1680634c545d081461007d57806369034f871461010a578063a22e364c146101a2578063b795dcd51461022f578063d9e746a01461033e578063f8da6384146103d6575b600080fd5b34801561008957600080fd5b506100c8600480360381019080803573ffffffffffffffffffffffffffffffffffffffff16906020019092919080359060200190929190505050610459565b604051808273ffffffffffffffffffffffffffffffffffffffff1673ffffffffffffffffffffffffffffffffffffffff16815260200191505060405180910390f35b34801561011657600080fd5b5061014b600480360381019080803573ffffffffffffffffffffffffffffffffffffffff1690602001909291905050506104a6565b6040518080602001828103825283818151815260200191508051906020019060200280838360005b8381101561018e578082015181840152602081019050610173565b505050509050019250505060405180910390f35b3480156101ae57600080fd5b506101ed600480360381019080803573ffffffffffffffffffffffffffffffffffffffff16906020019092919080359060200190929190505050610572565b604051808273ffffffffffffffffffffffffffffffffffffffff1673ffffffffffffffffffffffffffffffffffffffff16815260200191505060405180910390f35b34801561023b57600080fd5b506102fc600480360381019080803573ffffffffffffffffffffffffffffffffffffffff169060200190929190803590602001908201803590602001908080601f0160208091040260200160405190810160405280939291908181526020018383808284378201915050505050509192919290803590602001908201803590602001908080601f01602080910402602001604051908101604052809392919081815260200183838082843782019150505050505091929192905050506105bf565b604051808273ffffffffffffffffffffffffffffffffffffffff1673ffffffffffffffffffffffffffffffffffffffff16815260200191505060405180910390f35b34801561034a57600080fd5b5061037f600480360381019080803573ffffffffffffffffffffffffffffffffffffffff169060200190929190505050610887565b6040518080602001828103825283818151815260200191508051906020019060200280838360005b838110156103c25780820151818401526020810190506103a7565b505050509050019250505060405180910390f35b3480156103e257600080fd5b50610457600480360381019080803573ffffffffffffffffffffffffffffffffffffffff169060200190929190803573ffffffffffffffffffffffffffffffffffffffff169060200190929190803573ffffffffffffffffffffffffffffffffffffffff169060200190929190505050610954565b005b60006020528160005260406000208181548110151561047457fe5b906000526020600020016000915091509054906101000a900473ffffffffffffffffffffffffffffffffffffffff1681565b60606000808373ffffffffffffffffffffffffffffffffffffffff1673ffffffffffffffffffffffffffffffffffffffff16815260200190815260200160002080548060200260200160405190810160405280929190818152602001828054801561056657602002820191906000526020600020905b8160009054906101000a900473ffffffffffffffffffffffffffffffffffffffff1673ffffffffffffffffffffffffffffffffffffffff168152602001906001019080831161051c575b50505050509050919050565b60016020528160005260406000208181548110151561058d57fe5b906000526020600020016000915091509054906101000a900473ffffffffffffffffffffffffffffffffffffffff1681565b6000808460008190508073ffffffffffffffffffffffffffffffffffffffff1663893d20e86040518163ffffffff167c0100000000000000000000000000000000000000000000000000000000028152600401602060405180830381600087803b15801561062c57600080fd5b505af1158015610640573d6000803e3d6000fd5b505050506040513d602081101561065657600080fd5b810190808051906020019092919050505073ffffffffffffffffffffffffffffffffffffffff163373ffffffffffffffffffffffffffffffffffffffff161415156106a057600080fd5b8686866106ab610d12565b808473ffffffffffffffffffffffffffffffffffffffff1673ffffffffffffffffffffffffffffffffffffffff1681526020018060200180602001838103835285818151815260200191508051906020019080838360005b8381101561071e578082015181840152602081019050610703565b50505050905090810190601f16801561074b5780820380516001836020036101000a031916815260200191505b50838103825284818151815260200191508051906020019080838360005b83811015610784578082015181840152602081019050610769565b50505050905090810190601f1680156107b15780820380516001836020036101000a031916815260200191505b5095505050505050604051809103906000f0801580156107d5573d6000803e3d6000fd5b5092506000808873ffffffffffffffffffffffffffffffffffffffff1673ffffffffffffffffffffffffffffffffffffffff1681526020019081526020016000208390806001815401808255809150509060018203906000526020600020016000909192909190916101000a81548173ffffffffffffffffffffffffffffffffffffffff021916908373ffffffffffffffffffffffffffffffffffffffff160217905550508293505050509392505050565b6060600160008373ffffffffffffffffffffffffffffffffffffffff1673ffffffffffffffffffffffffffffffffffffffff16815260200190815260200160002080548060200260200160405190810160405280929190818152602001828054801561094857602002820191906000526020600020905b8160009054906101000a900473ffffffffffffffffffffffffffffffffffffffff1673ffffffffffffffffffffffffffffffffffffffff16815260200190600101908083116108fe575b50505050509050919050565b600081846000808391508290508173ffffffffffffffffffffffffffffffffffffffff1663893d20e86040518163ffffffff167c0100000000000000000000000000000000000000000000000000000000028152600401602060405180830381600087803b1580156109c557600080fd5b505af11580156109d9573d6000803e3d6000fd5b505050506040513d60208110156109ef57600080fd5b810190808051906020019092919050505073ffffffffffffffffffffffffffffffffffffffff163373ffffffffffffffffffffffffffffffffffffffff16141515610a3957600080fd5b8073ffffffffffffffffffffffffffffffffffffffff1663893d20e86040518163ffffffff167c0100000000000000000000000000000000000000000000000000000000028152600401602060405180830381600087803b158015610a9d57600080fd5b505af1158015610ab1573d6000803e3d6000fd5b505050506040513d6020811015610ac757600080fd5b810190808051906020019092919050505073ffffffffffffffffffffffffffffffffffffffff168273ffffffffffffffffffffffffffffffffffffffff1663893d20e86040518163ffffffff167c0100000000000000000000000000000000000000000000000000000000028152600401602060405180830381600087803b158015610b5257600080fd5b505af1158015610b66573d6000803e3d6000fd5b505050506040513d6020811015610b7c57600080fd5b810190808051906020019092919050505073ffffffffffffffffffffffffffffffffffffffff16141515610baf57600080fd5b600160008873ffffffffffffffffffffffffffffffffffffffff1673ffffffffffffffffffffffffffffffffffffffff1681526020019081526020016000208890806001815401808255809150509060018203906000526020600020016000909192909190916101000a81548173ffffffffffffffffffffffffffffffffffffffff021916908373ffffffffffffffffffffffffffffffffffffffff160217905550508794508473ffffffffffffffffffffffffffffffffffffffff1663612830e7886040518263ffffffff167c0100000000000000000000000000000000000000000000000000000000028152600401808273ffffffffffffffffffffffffffffffffffffffff1673ffffffffffffffffffffffffffffffffffffffff168152602001915050600060405180830381600087803b158015610cf057600080fd5b505af1158015610d04573d6000803e3d6000fd5b505050505050505050505050565b60405161063480610d23833901905600608060405234801561001057600080fd5b50604051610634380380610634833981018060405281019080805190602001909291908051820192919060200180518201929190505050826000806101000a81548173ffffffffffffffffffffffffffffffffffffffff021916908373ffffffffffffffffffffffffffffffffffffffff1602179055504260018190555081600290805190602001906100a49291906100c4565b5080600390805190602001906100bb9291906100c4565b50505050610169565b828054600181600116156101000203166002900490600052602060002090601f016020900481019282601f1061010557805160ff1916838001178555610133565b82800160010185558215610133579182015b82811115610132578251825591602001919060010190610117565b5b5090506101409190610144565b5090565b61016691905b8082111561016257600081600090555060010161014a565b5090565b90565b6104bc806101786000396000f300608060405260043610610078576000357c0100000000000000000000000000000000000000000000000000000000900463ffffffff1680634a79d50c1461007d578063612830e71461010d5780638529587714610150578063893d20e8146101e05780639caa493214610237578063cfb2e0fa1461028e575b600080fd5b34801561008957600080fd5b506100926102b9565b6040518080602001828103825283818151815260200191508051906020019080838360005b838110156100d25780820151818401526020810190506100b7565b50505050905090810190601f1680156100ff5780820380516001836020036101000a031916815260200191505b509250505060405180910390f35b34801561011957600080fd5b5061014e600480360381019080803573ffffffffffffffffffffffffffffffffffffffff169060200190929190505050610357565b005b34801561015c57600080fd5b5061016561039e565b6040518080602001828103825283818151815260200191508051906020019080838360005b838110156101a557808201518184015260208101905061018a565b50505050905090810190601f1680156101d25780820380516001836020036101000a031916815260200191505b509250505060405180910390f35b3480156101ec57600080fd5b506101f561043c565b604051808273ffffffffffffffffffffffffffffffffffffffff1673ffffffffffffffffffffffffffffffffffffffff16815260200191505060405180910390f35b34801561024357600080fd5b5061024c610465565b604051808273ffffffffffffffffffffffffffffffffffffffff1673ffffffffffffffffffffffffffffffffffffffff16815260200191505060405180910390f35b34801561029a57600080fd5b506102a361048a565b6040518082815260200191505060405180910390f35b60028054600181600116156101000203166002900480601f01602080910402602001604051908101604052809291908181526020018280546001816001161561010002031660029004801561034f5780601f106103245761010080835404028352916020019161034f565b820191906000526020600020905b81548152906001019060200180831161033257829003601f168201915b505050505081565b42600460008373ffffffffffffffffffffffffffffffffffffffff1673ffffffffffffffffffffffffffffffffffffffff1681526020019081526020016000208190555050565b60038054600181600116156101000203166002900480601f0160208091040260200160405190810160405280929190818152602001828054600181600116156101000203166002900480156104345780601f1061040957610100808354040283529160200191610434565b820191906000526020600020905b81548152906001019060200180831161041757829003601f168201915b505050505081565b60008060009054906101000a900473ffffffffffffffffffffffffffffffffffffffff16905090565b6000809054906101000a900473ffffffffffffffffffffffffffffffffffffffff1681565b600154815600a165627a7a723058208f1e20d79005e3e0caa64a08dfb0d3bf4c79b62d92e8a307007e7fc02f2da4af0029a165627a7a7230582057e039cfd4481c5c9a1013970ee9d014d1dc50085103f39d5f4e0d1494f321360029",
  "source": "pragma solidity ^0.4.17;\n\nimport './Qi.sol';\nimport  './Collection.sol';\n\ncontract qiRegistry {\n\n\n  modifier onlyCollectionOwner(address collectionAddr) {\n    Collection c = Collection(collectionAddr);\n\t\trequire(msg.sender == c.getOwner());\n    _;\n  }\n\n  modifier onlyQiOwner(address collectionAddr, address qiAddress) {\n    Collection c = Collection(collectionAddr);\n    Qi q = Qi(qiAddress);\n\t\trequire(msg.sender == c.getOwner());\n    require(c.getOwner() == q.getOwner());\n    _;\n  }\n\n  // Mapping between profile and Q'i's it created\n  mapping (address => address[]) public issuers;\n\n  // Mapping between profile and Q'i's it owns\n  mapping (address => address[]) public receivers;\n\n  /*\n    Create a new Qi and register the owner as a Qi Issuer\n  */\n  function createQi(\n    address collectionAddr,\n    string title,\n    string info)\n    onlyCollectionOwner (collectionAddr)\n    public\n    returns (address){\n\n    Qi qi = new Qi(collectionAddr, title, info);\n    // Maps the Qi address to the Qi creator\n    issuers[collectionAddr].push(qi);\n    return qi;\n  }\n\n  function issueQi(\n    address qiAddress,\n    address receiverAddress,\n    address collectionAddr)\n    onlyQiOwner (collectionAddr, qiAddress)\n    public {\n    // Maps Qi address to the receiver's Q'i' list\n    // Sets the date in which the Q'i' was emmited\n    receivers[receiverAddress].push(qiAddress);\n    Qi q = Qi(qiAddress);\n    q.newIssueDate(receiverAddress);\n  }\n\n  function getIssuerQis(\n    address issuerAddress)\n    public\n    view\n    returns (address[]) {\n    return issuers[issuerAddress];\n  }\n\n  function getReceiverQis(\n    address receiverAddress)\n    public\n    view\n    returns (address[]) {\n    return receivers[receiverAddress];\n  }\n\n}\n",
  "sourcePath": "/Users/juanroalvarado/Desktop/qi/qi-contracts/contracts/qiRegistry.sol",
  "compiler": {
    "name": "solc",
    "version": "0.4.24+commit.e67f0147.Emscripten.clang"
  },
  "schemaVersion": "2.0.1",
  "updatedAt": "2018-09-22T23:03:50.871Z"
}